{
    "_format": "hh-sol-artifact-1",
    "contractName": "Transaction",
    "sourceName": "contracts/Transaction.sol",
    "abi": [
        {
            "anonymous": false,
            "inputs": [
                {
                    "indexed": false,
                    "internalType": "address",
                    "name": "sender",
                    "type": "address"
                },
                {
                    "indexed": false,
                    "internalType": "address",
                    "name": "receiver",
                    "type": "address"
                },
                {
                    "indexed": false,
                    "internalType": "uint8",
                    "name": "amount",
                    "type": "uint8"
                },
                {
                    "indexed": false,
                    "internalType": "string",
                    "name": "message",
                    "type": "string"
                },
                {
                    "indexed": false,
                    "internalType": "uint256",
                    "name": "timestamp",
                    "type": "uint256"
                },
                {
                    "indexed": false,
                    "internalType": "string",
                    "name": "keyword",
                    "type": "string"
                }
            ],
            "name": "Transfer",
            "type": "event"
        },
        {
            "inputs": [
                {
                    "internalType": "address payable",
                    "name": "receiver",
                    "type": "address"
                },
                {
                    "internalType": "uint8",
                    "name": "amount",
                    "type": "uint8"
                },
                {
                    "internalType": "string",
                    "name": "message",
                    "type": "string"
                },
                {
                    "internalType": "string",
                    "name": "keyword",
                    "type": "string"
                }
            ],
            "name": "addToBlockchain",
            "outputs": [],
            "stateMutability": "nonpayable",
            "type": "function"
        },
        {
            "inputs": [],
            "name": "getAllTransaction",
            "outputs": [
                {
                    "components": [
                        {
                            "internalType": "address",
                            "name": "sender",
                            "type": "address"
                        },
                        {
                            "internalType": "address",
                            "name": "receiver",
                            "type": "address"
                        },
                        {
                            "internalType": "uint8",
                            "name": "amount",
                            "type": "uint8"
                        },
                        {
                            "internalType": "string",
                            "name": "message",
                            "type": "string"
                        },
                        {
                            "internalType": "uint256",
                            "name": "timestamp",
                            "type": "uint256"
                        },
                        {
                            "internalType": "string",
                            "name": "keyword",
                            "type": "string"
                        }
                    ],
                    "internalType": "struct Transaction.TransferStruct[]",
                    "name": "",
                    "type": "tuple[]"
                }
            ],
            "stateMutability": "view",
            "type": "function"
        },
        {
            "inputs": [],
            "name": "getTransactionCount",
            "outputs": [
                {
                    "internalType": "uint256",
                    "name": "",
                    "type": "uint256"
                }
            ],
            "stateMutability": "view",
            "type": "function"
        }
    ],
    "bytecode": "0x608060405234801561001057600080fd5b50610c65806100206000396000f3fe608060405234801561001057600080fd5b50600436106100415760003560e01c80630b9396b1146100465780632e7700f014610062578063add6415d14610080575b600080fd5b610060600480360381019061005b919061060e565b61009e565b005b61006a61027a565b6040516100779190610926565b60405180910390f35b610088610283565b6040516100959190610904565b60405180910390f35b60016000808282546100b09190610a08565b9250508190555060016040518060c001604052803373ffffffffffffffffffffffffffffffffffffffff1681526020018673ffffffffffffffffffffffffffffffffffffffff1681526020018560ff16815260200184815260200142815260200183815250908060018154018082558091505060019003906000526020600020906005020160009091909190915060008201518160000160006101000a81548173ffffffffffffffffffffffffffffffffffffffff021916908373ffffffffffffffffffffffffffffffffffffffff16021790555060208201518160010160006101000a81548173ffffffffffffffffffffffffffffffffffffffff021916908373ffffffffffffffffffffffffffffffffffffffff16021790555060408201518160010160146101000a81548160ff021916908360ff16021790555060608201518160020190805190602001906102099291906104d9565b506080820151816003015560a08201518160040190805190602001906102309291906104d9565b5050507f74d49bb4a29c72aae141374186e8dddf162adb2e41604dafb47c1a934943619233858585428660405161026c96959493929190610895565b60405180910390a150505050565b60008054905090565b60606001805480602002602001604051908101604052809291908181526020016000905b828210156104d057838290600052602060002090600502016040518060c00160405290816000820160009054906101000a900473ffffffffffffffffffffffffffffffffffffffff1673ffffffffffffffffffffffffffffffffffffffff1673ffffffffffffffffffffffffffffffffffffffff1681526020016001820160009054906101000a900473ffffffffffffffffffffffffffffffffffffffff1673ffffffffffffffffffffffffffffffffffffffff1673ffffffffffffffffffffffffffffffffffffffff1681526020016001820160149054906101000a900460ff1660ff1660ff1681526020016002820180546103a390610b31565b80601f01602080910402602001604051908101604052809291908181526020018280546103cf90610b31565b801561041c5780601f106103f15761010080835404028352916020019161041c565b820191906000526020600020905b8154815290600101906020018083116103ff57829003601f168201915b505050505081526020016003820154815260200160048201805461043f90610b31565b80601f016020809104026020016040519081016040528092919081815260200182805461046b90610b31565b80156104b85780601f1061048d576101008083540402835291602001916104b8565b820191906000526020600020905b81548152906001019060200180831161049b57829003601f168201915b505050505081525050815260200190600101906102a7565b50505050905090565b8280546104e590610b31565b90600052602060002090601f016020900481019282610507576000855561054e565b82601f1061052057805160ff191683800117855561054e565b8280016001018555821561054e579182015b8281111561054d578251825591602001919060010190610532565b5b50905061055b919061055f565b5090565b5b80821115610578576000816000905550600101610560565b5090565b600061058f61058a84610972565b610941565b9050828152602081018484840111156105a757600080fd5b6105b2848285610aef565b509392505050565b6000813590506105c981610c01565b92915050565b600082601f8301126105e057600080fd5b81356105f084826020860161057c565b91505092915050565b60008135905061060881610c18565b92915050565b6000806000806080858703121561062457600080fd5b6000610632878288016105ba565b9450506020610643878288016105f9565b935050604085013567ffffffffffffffff81111561066057600080fd5b61066c878288016105cf565b925050606085013567ffffffffffffffff81111561068957600080fd5b610695878288016105cf565b91505092959194509250565b60006106ad83836107c9565b905092915050565b6106be81610ab9565b82525050565b6106cd81610a5e565b82525050565b6106dc81610a5e565b82525050565b60006106ed826109b2565b6106f781856109d5565b935083602082028501610709856109a2565b8060005b85811015610745578484038952815161072685826106a1565b9450610731836109c8565b925060208a0199505060018101905061070d565b50829750879550505050505092915050565b6000610762826109bd565b61076c81856109e6565b935061077c818560208601610afe565b61078581610bf0565b840191505092915050565b600061079b826109bd565b6107a581856109f7565b93506107b5818560208601610afe565b6107be81610bf0565b840191505092915050565b600060c0830160008301516107e160008601826106c4565b5060208301516107f460208601826106c4565b5060408301516108076040860182610877565b506060830151848203606086015261081f8282610757565b91505060808301516108346080860182610859565b5060a083015184820360a086015261084c8282610757565b9150508091505092915050565b61086281610aa2565b82525050565b61087181610aa2565b82525050565b61088081610aac565b82525050565b61088f81610aac565b82525050565b600060c0820190506108aa60008301896106d3565b6108b760208301886106b5565b6108c46040830187610886565b81810360608301526108d68186610790565b90506108e56080830185610868565b81810360a08301526108f78184610790565b9050979650505050505050565b6000602082019050818103600083015261091e81846106e2565b905092915050565b600060208201905061093b6000830184610868565b92915050565b6000604051905081810181811067ffffffffffffffff8211171561096857610967610bc1565b5b8060405250919050565b600067ffffffffffffffff82111561098d5761098c610bc1565b5b601f19601f8301169050602081019050919050565b6000819050602082019050919050565b600081519050919050565b600081519050919050565b6000602082019050919050565b600082825260208201905092915050565b600082825260208201905092915050565b600082825260208201905092915050565b6000610a1382610aa2565b9150610a1e83610aa2565b9250827fffffffffffffffffffffffffffffffffffffffffffffffffffffffffffffffff03821115610a5357610a52610b63565b5b828201905092915050565b6000610a6982610a82565b9050919050565b6000610a7b82610a82565b9050919050565b600073ffffffffffffffffffffffffffffffffffffffff82169050919050565b6000819050919050565b600060ff82169050919050565b6000610ac482610acb565b9050919050565b6000610ad682610add565b9050919050565b6000610ae882610a82565b9050919050565b82818337600083830152505050565b60005b83811015610b1c578082015181840152602081019050610b01565b83811115610b2b576000848401525b50505050565b60006002820490506001821680610b4957607f821691505b60208210811415610b5d57610b5c610b92565b5b50919050565b7f4e487b7100000000000000000000000000000000000000000000000000000000600052601160045260246000fd5b7f4e487b7100000000000000000000000000000000000000000000000000000000600052602260045260246000fd5b7f4e487b7100000000000000000000000000000000000000000000000000000000600052604160045260246000fd5b6000601f19601f8301169050919050565b610c0a81610a70565b8114610c1557600080fd5b50565b610c2181610aac565b8114610c2c57600080fd5b5056fea2646970667358221220821f427045d9e4b170c79eb987c29e9a86c7e8f73a40ce97d4cbf0d1726944ab64736f6c63430008000033",
    "linkReferences": {},
    "deployedLinkReferences": {}
}